:0400000001FB442597
:04000100041C86C68F
:04000200068203323D
:0400030006AEBA414A
:0400040007CECF0E46
:0400050000A2AD8028
:040006000788BD3377
:04000700067FEE1171
:0400080006650C0F6E
:0400090002FC7F7303
:04000A00052B87BC7F
:04000B0005DBCA49FE
:04000C0006F355F7AB
:04000D00069F8C6559
:04000E000771E8810D
:04000F0003BE89EBB8
:0400100005FA2AC201
:040011000095907E48
:04001200066C60CA4E
:04001300070343C5D7
:04001400017AB812A3
:0400150002712369E8
:040016000363C12B94
:0400170004A2D63A2F
:0400180000C172931E
:04001900053E490C4B
:04001A0002571B3935
:04001B0007D2B27FD7
:04001C00045B3CE95C
:04001D0002C01C0EF3
:04001E000249F6D7C6
:04001F000384CC6228
:0400200005DA4CC1F0
:0400210001B42C34C6
:0400220006F52ABEF7
:04002300070525D2D6
:04002400013046B9A8
:04002500040FACCA4E
:04002600008F11DD59
:0400270004EDBF27FE
:04002800001FBE7483
:04002900015C312421
:04002A00020DD138BA
:04002B000359276CE2
:04002C0005587BE414
:04002D0000C3776B2A
:04002E000499FBDB5B
:04002F00023079B072
:0400300000D23F6358
:04003100055DA3C402
:04003200009B1C888B
:0400330003DD469112
:04003400025C2AE35D
:0400350007754FFDFF
:04003600043486C741
:0400370001DCBB111C
:0400380006BDD52804
:040039000052F5DAA2
:04003A0002294AE16C
:04003B00012147E276
:04003C000178B8BCD3
:04003D00057F7C2897
:04003E00068C428664
:04003F00066D1E47E5
:04004000011788D24A
:04004100002E10ADD0
:040042000396E59E9E
:04004300048C099E82
:0400440004F7E9F7DD
:0400450005A1FB1CFA
:040046000558F0FF6A
:0400470002607EC411
:0400480003F4C12DCF
:04004900040FB72CBD
:04004A000725E2950F
:04004B0005082C6711
:04004C000203D610C5
:04004D0002EB65EF6E
:04004E0007CDE8AD45
:04004F000001E96C57
:040050000384AEA3D4
:040051000633888E5C
:0400520007881BEE12
:04005300066B908622
:0400540004F2556AF3
:04005500068FF88496
:040056000355B5B6E3
:0400570002742A1FE6
:0400580004D0246E3E
:0400590006B4337B3B
:04005A00008B6E7138
:04005B00036FB7B1C7
:04005C00008CB9C794
:04005D00041B52EE40
:04005E0000B1497E26
:04005F00052805B7B4
:0400600006DFE45380
:0400610002CD69ABB8
:040062000243CE6027
:0400630000C31B4A71
:0400640006A2A13817
:04006500026B835552
:0400660007EE08B9E0
:0400670006B6309118
:0400680000D6A59980
:040069000563240CFB
:04006A00030BA2C919
:04006B0002AD872833
:04006C000540B39305
:04006D000125E8562B
:04006E0002C00802C2
:04006F0004281190C0
:04007000042A59CB3A
:0400710000F7C76766
:04007200016CB7580E
:0400730005F388D930
:04007400002E1A67D9
:0400750001D87BEE45
:040076000327C6ECAA
:04007700020C619D79
:0400780004BB67D985
:0400790000DCB9836B
:04007A0000FE14ADC3
:04007B000017036700
:04007C0001DD8370AF
:04007D0001BC16D7D5
:04007E0003E4B99945
:04007F000146B7B2CD
:04008000036029DD13
:04008100074AF6C86C
:04008200047D0F31B9
:0400830002C4F79923
:0400840001C87D89A9
:04008500050E3C72B6
:04008600010FF0CEA8
:04008700065B1157AC
:04008800020C01481D
:0400890000333867A1
:04008A0003E1DC684A
:04008B00023290BAF3
:04008C000036002317
:04008D00073AFF2609
:04008E000154308168
:04008F00030867AB50
:040090000210E8C7AB
:0400910004F73AF83E
:0400920006E9FEC4B9
:04009300065D85DEA3
:0400940000B6ED398C
:0400950003918D47FF
:040096000392C4F815
:04009700035760E4C7
:04009800048DA17CB6
:0400990003DFB5A22A
:04009A00038CD7FC00
:04009B000395DFA149
:04009C00052D5DBE13
:04009D0000FFF679F1
:04009E00015E665049
:04009F0000D42E5902
:0400A0000338D2AEA1
:0400A100070491BF00
:0400A2000408B1DFBE
:0400A3000769327047
:0400A40002FD889B36
:0400A5000054B993B7
:0400A600048F7A9DAC
:0400A700007CA6FD36
:0400A80000889D80AF
:0400A900017EF2FFE3
:0400AA0001B08DA76D
:0400AB0003F95D4BAD
:0400AC000311141A0E
:0400AD0007C6AB06D1
:0400AE00054F06767E
:0400AF0001FDAE6D34
:0400B00001C29A23CC
:0400B100071EA00B7B
:0400B200005D09CE16
:0400B30004FADD0965
:0400B400039FA1DE27
:0400B5000005C3BFC0
:0400B600064F9C0B4A
:0400B700012CF86CB4
:0400B80005D19E0AC6
:0400B900027E5BACBC
:0400BA00025CAE62D4
:0400BB000708C41B53
:0400BC000039655A48
:0400BD0006D968896F
:0400BE00068598BC5F
:0400BF00053E38EBD7
:0400C0000119D6A0AC
:0400C1000734BE6AD8
:0400C20005F9EFD677
:0400C30003AE66D34F
:0400C400015A94BC8D
:0400C5000152B9F536
:0400C600028A012980
:0400C7000404D08CD1
:0400C80000704CF97F
:0400C900020120B759
:0400CA000427385D72
:0400CB000278CC25C6
:0400CC0000D8846C68
:0400CD0003DB7CBC19
:0400CE0003ED4BC82B
:0400CF0002A505A7DA
:0400D00001361309D9
:0400D1000736258C3D
:0400D200039B47B590
:0400D3000193F2EDB6
:0400D40003C33CF82E
:0400D50000EC2AA36E
:0400D600021969F8AA
:0400D7000069D9CD16
:0400D80001E8C4D7A0
:0400D90000457592D7
:0400DA0004A23984BF
:0400DB0006E9FBB186
:0400DC0004E05B8958
:0400DD0007F5BBDE8A
:0400DE0006FC5F9726
:0400DF0004068BC9BF
:0400E00005867C2EE7
:0400E10004323AC3E8
:0400E2000021822453
:0400E300056C46E77B
:0400E40004AE0CDD7D
:0400E500050DB8F756
:0400E600018EB913BB
:0400E700075CD62DAF
:0400E800009A20DA80
:0400E90003D1EC90C3
:0400EA0007C731FD16
:0400EB00012097B6A3
:0400EC0004E6F2B381
:0400ED00072D252E88
:0400EE000163300179
:0400EF0001F2FA4AD6
:0400F00000262F4671
:0400F1000224FC8465
:0400F2000616CF56C9
:0400F30007BE4B41B8
:0400F40005C9C3C3B4
:0400F5000654D1627A
:0400F60000C6CE3042
:0400F7000696A7BF03
:0400F800078CE7D5B5
:0400F90002B2F367F5
:0400FA00030016A841
:0400FB000319B460D1
:0400FC0002F1763463
:0400FD0004ABA76F3A
:0400FE000692DF394E
:0400FF00053BD07479
:0401000004C128739B
:0401010003B78EE5CD
:0401020004E5F176A9
:04010300064DABEF0B
:040104000454C48C4F
:0401050005AD7E17AF
:0401060005AC009CA8
:0401070006F8792657
:0401080004724EDB54
:0401090000106FAEC5
:04010A000675F39EE5
:04010B000685658A76
:04010C00060DDD24DB
:04010D0004C30563BF
:04010E000643A04BB9
:04010F0007109665DA
:040110000091D14346
:04011100053CE81DA4
:04011200076AAF2D9C
:04011300047A98D6FC
:0401140006D50C21DF
:04011500011D5B8AE3
:04011600044B39C29B
:040117000157061A6C
:04011800057A1398B9
:0401190004637B5DA3
:04011A00014D2EB3B2
:04011B00042E0F435C
:04011C0001A32FE22A
:04011D000771DA513B
:04011E000722A19D76
:04011F0003BAB58CDE
:0401200006DF2F2C9B
:0401210002329D0900
:040122000183E61A55
:040123000512A650CB
:0401240002BAC7F85C
:040125000334ACF300
:040126000064AFA51D
:0401270006A903E240
:0401280000FCAF9D8B
:0401290000944151AC
:04012A00077769F5F5
:04012B0005D4D64DD4
:04012C0003606E9866
:04012D000032BE815D
:04012E0002CF976EF7
:04012F00060071292C
:040130000363B20DA6
:04013100068DCDA3C7
:04013200004F3D58E5
:04013300041ACDA33A
:0401340001D58C90D5
:0401350002ED90C97E
:0401360006A03F627E
:0401370002A0A9D7A2
:0401380006405F54CA
:040139000647F9C7B5
:04013A0001C3062BCC
:04013B00020B3098EB
:04013C0004B217BA38
:04013D0001DD8BBB9A
:04013E000651E65A26
:04013F000336FED0B5
:040140000604A2B25D
:04014100071C318ADC
:0401420002B677FC8E
:04014300011A8D8D83
:0401440001842BF116
:0401450003C1554954
:04014600058D67B00C
:0401470001B859E7BB
:040148000127DB8729
:0401490001A706DD27
:04014A0002D0455644
:04014B00039195CABD
:04014C0006A64E8530
:04014D000762C1CDB7
:04014E00042D6DD43B
:04014F00020BBEE5FC
:040150000542314FE4
:040151000641447EA1
:0401520001F66794B7
:0401530004702ABB4F
:0401540007872C2FBE
:0401550007BBECEE0A
:040156000096E360CC
:0401570005BA690E6E
:04015800013DBCDBCE
:0401590002E3311676
:04015A0005940D33C8
:04015B0007C34FBACD
:04015C000127A18353
:04015D0004290B0462
:04015E00073EF2ABBB
:04015F00000C9521DA
:0401600006C82402A7
:04016100045792E2CB
:0401620003C77EAAA7
:040163000436104D01
:04016400025DDDE675
:04016500075582F8C0
:040166000111E3DDC3
:0401670005CC07DEDE
:0401680000D60EFAB5
:0401690007C603D4EE
:04016A00041049B87C
:04016B0001976AEF9F
:04016C0000767103A5
:04016D0000D4E0AF2B
:04016E00078829864F
:04016F0003F7610B26
:040170000787255484
:0401710004FE263929
:0401720001D0033F76
:04017300074150539D
:04017400051612BD9D
:0401750004DA2FE792
:040176000390EBAD5A
:0401770001034AF83E
:0401780004BFC8A157
:04017900078F49DDC6
:04017A0006E9EF9310
:04017B0000BEC725D6
:04017C0005C8F5A419
:04017D0003424FA04A
:04017E00041361689D
:04017F0004D8967F8B
:0401800006BEB2B64F
:04018100049A11AB20
:040182000407E1513C
:0401830006C144521B
:04018400007673E6A8
:040185000327CDFE81
:0401860001A248EF9B
:040187000490538FFE
:0401880001A5F19745
:04018900056BA9D782
:04018A0000849EAFA0
:04018B00066747C8F4
:04018C0001F9E6CAC5
:04018D000278DCAC6C
:04018E000716CE2D55
:04018F000000F62A4C
:04019000015FAB0759
:0401910003541E7F76
:0401920005B61D553C
:0401930001084DBE54
:04019400056B789BE4
:040195000189EDC22D
:0401960002222FDB37
:04019700008197EB61
:04019800054D99B9BF
:0401990007CB62CD61
:04019A00004BE4AF83
:04019B00032C247697
:04019C00032DC12549
:04019D00016189274C
:04019E00037F730C5C
:04019F0001DA660B10
:0401A000052F7D0B9F
:0401A10004DA98A044
:0401A20006AFE6BE00
:0401A3000205B6801B
:0401A400069EFCA116
:0401A500007BEA7978
:0401A600044875454F
:0401A700002B4BE4FA
:0401A80000678966FD
:0401A90004E128AA9B
:0401AA0004D21F71EB
:0401AB0003BB5980B9
:0401AC000056AD2F1D
:0401AD000506F76BE1
:0401AE00050BAD137D
:0401AF0007A3E9F3C6
:0401B0000513F5F34B
:0401B100062F3B1AC0
:0401B20004814A7505
:0401B30007F8B17127
:0401B400012276C7E7
:0401B50005191EAD5D
:0401B6000399E91BA5
:0401B7000539E962BB
:0401B800061991D6BD
:0401B900069120BBD0
:0401BA00056CFF8C45
:0401BB0003B83869E4
:0401BC00077F05AC08
:0401BD000527AF4F14
:0401BE00061D5DAE0F
:0401BF00021CBC055D
:0401C00001EFAFDAC2
:0401C10004C93C9B96
:0401C2000127855F2D
:0401C30004E47ADDF9
:0401C4000613CF65EA
:0401C500030338A751
:0401C60004E550E21A
:0401C7000677D8E3FC
:0401C800053AB9A794
:0401C9000217FE2EED
:0401CA0005F7AAD2B9
:0401CB000063186550
:0401CC0005C27E2BBF
:0401CD0007E282B112
:0401CE00006BB521EC
:0401CF000326853648
:0401D000057720444B
:0401D10004537BF365
:0401D2000704F6DA4E
:0401D300074D99013A
:0401D4000124D6E04C
:0401D5000686AEF6F6
:0401D6000674023E6B
:0401D700054E39F4A4
:0401D800069B2D4C09
:0401D90001B23E979A
:0401DA0001627ECF71
:0401DB00068E26DB8B
:0401DC0001DDE982D6
:0401DD00034511EED7
:0401DE0007BC9D09B4
:0401DF000266B5CD32
:0401E0000666469FCA
:0401E100024ECC9668
:0401E20003B6B3416C
:0401E30006C83C8C82
:0401E40001ED5C23AA
:0401E50002C554E714
:0401E60007961D67F4
:0401E7000708CBB585
:0401E80000352E931D
:0401E900008B86669B
:0401EA0001B873499C
:0401EB00016757E26F
:0401EC00043DA055D9
:0401ED0001847066B3
:0401EE0007CDC2E097
:0401EF0006EEFDE338
:0401F000077EFAC5C7
:0401F10000E06316B1
:0401F2000573B66477
:0401F30002DFC12145
:0401F40007EFE32509
:0401F50001AF0F0C3B
:0401F60005B267B532
:0401F70000E4F558D3
:0401F8000150D30DD2
:0401F900033E1D7331
:0401FA0006421CBFDE
:0401FB00019F76C723
:0401FC000172878E77
:0401FD0006A7E8FB6E
:0401FE0000954276B0
:0401FF0005F4E5E33B
:00000001FF
