:0400000000000100FB
:0400010000000101F9
:0400020000000102F7
:0400030000000103F5
:0400040000000104F3
:0400050000000105F1
:0400060000000106EF
:0400070000000107ED
:0400080000000108EB
:0400090000000109E9
:04000A000000010AE7
:04000B000000010BE5
:04000C000000010CE3
:04000D000000010DE1
:04000E000000010EDF
:04000F000000010FDD
:0400100000000110DB
:0400110000000111D9
:0400120000000112D7
:0400130000000113D5
:0400140000000114D3
:0400150000000115D1
:0400160000000116CF
:0400170000000117CD
:0400180000000118CB
:0400190000000119C9
:04001A000000011AC7
:04001B000000011BC5
:04001C000000011CC3
:04001D000000011DC1
:04001E000000011EBF
:04001F000000011FBD
:0400200000000120BB
:0400210000000121B9
:0400220000000122B7
:0400230000000123B5
:0400240000000124B3
:0400250000000125B1
:0400260000000126AF
:0400270000000127AD
:0400280000000128AB
:0400290000000129A9
:04002A000000012AA7
:04002B000000012BA5
:04002C000000012CA3
:04002D000000012DA1
:04002E000000012E9F
:04002F000000012F9D
:04003000000001309B
:040031000000013199
:040032000000013297
:040033000000013395
:040034000000013493
:040035000000013591
:04003600000001368F
:04003700000001378D
:04003800000001388B
:040039000000013989
:04003A000000013A87
:04003B000000013B85
:04003C000000013C83
:04003D000000013D81
:04003E000000013E7F
:04003F000000013F7D
:04004000000001407B
:040041000000014179
:040042000000014277
:040043000000014375
:040044000000014473
:040045000000014571
:04004600000001466F
:04004700000001476D
:04004800000001486B
:040049000000014969
:04004A000000014A67
:04004B000000014B65
:04004C000000014C63
:04004D000000014D61
:04004E000000014E5F
:04004F000000014F5D
:04005000000001505B
:040051000000015159
:040052000000015257
:040053000000015355
:040054000000015453
:040055000000015551
:04005600000001564F
:04005700000001574D
:04005800000001584B
:040059000000015949
:04005A000000015A47
:04005B000000015B45
:04005C000000015C43
:04005D000000015D41
:04005E000000015E3F
:04005F000000015F3D
:04006000000001603B
:040061000000016139
:040062000000016237
:040063000000016335
:040064000000016433
:040065000000016531
:04006600000001662F
:04006700000001672D
:04006800000001682B
:040069000000016929
:04006A000000016A27
:04006B000000016B25
:04006C000000016C23
:04006D000000016D21
:04006E000000016E1F
:04006F000000016F1D
:04007000000001701B
:040071000000017119
:040072000000017217
:040073000000017315
:040074000000017413
:040075000000017511
:04007600000001760F
:04007700000001770D
:04007800000001780B
:040079000000017909
:04007A000000017A07
:04007B000000017B05
:04007C000000017C03
:04007D000000017D01
:04007E000000017EFF
:04007F000000017FFD
:0400800000000180FB
:0400810000000181F9
:0400820000000182F7
:0400830000000183F5
:0400840000000184F3
:0400850000000185F1
:0400860000000186EF
:0400870000000187ED
:0400880000000188EB
:0400890000000189E9
:04008A000000018AE7
:04008B000000018BE5
:04008C000000018CE3
:04008D000000018DE1
:04008E000000018EDF
:04008F000000018FDD
:0400900000000190DB
:0400910000000191D9
:0400920000000192D7
:0400930000000193D5
:0400940000000194D3
:0400950000000195D1
:0400960000000196CF
:0400970000000197CD
:0400980000000198CB
:0400990000000199C9
:04009A000000019AC7
:04009B000000019BC5
:04009C000000019CC3
:04009D000000019DC1
:04009E000000019EBF
:04009F000000019FBD
:0400A000000001A0BB
:0400A100000001A1B9
:0400A200000001A2B7
:0400A300000001A3B5
:0400A400000001A4B3
:0400A500000001A5B1
:0400A600000001A6AF
:0400A700000001A7AD
:0400A800000001A8AB
:0400A900000001A9A9
:0400AA00000001AAA7
:0400AB00000001ABA5
:0400AC00000001ACA3
:0400AD00000001ADA1
:0400AE00000001AE9F
:0400AF00000001AF9D
:0400B000000001B09B
:0400B100000001B199
:0400B200000001B297
:0400B300000001B395
:0400B400000001B493
:0400B500000001B591
:0400B600000001B68F
:0400B700000001B78D
:0400B800000001B88B
:0400B900000001B989
:0400BA00000001BA87
:0400BB00000001BB85
:0400BC00000001BC83
:0400BD00000001BD81
:0400BE00000001BE7F
:0400BF00000001BF7D
:0400C000000001C07B
:0400C100000001C179
:0400C200000001C277
:0400C300000001C375
:0400C400000001C473
:0400C500000001C571
:0400C600000001C66F
:0400C700000001C76D
:0400C800000001C86B
:0400C900000001C969
:0400CA00000001CA67
:0400CB00000001CB65
:0400CC00000001CC63
:0400CD00000001CD61
:0400CE00000001CE5F
:0400CF00000001CF5D
:0400D000000001D05B
:0400D100000001D159
:0400D200000001D257
:0400D300000001D355
:0400D400000001D453
:0400D500000001D551
:0400D600000001D64F
:0400D700000001D74D
:0400D800000001D84B
:0400D900000001D949
:0400DA00000001DA47
:0400DB00000001DB45
:0400DC00000001DC43
:0400DD00000001DD41
:0400DE00000001DE3F
:0400DF00000001DF3D
:0400E000000001E03B
:0400E100000001E139
:0400E200000001E237
:0400E300000001E335
:0400E400000001E433
:0400E500000001E531
:0400E600000001E62F
:0400E700000001E72D
:0400E800000001E82B
:0400E900000001E929
:0400EA00000001EA27
:0400EB00000001EB25
:0400EC00000001EC23
:0400ED00000001ED21
:0400EE00000001EE1F
:0400EF00000001EF1D
:0400F000000001F01B
:0400F100000001F119
:0400F200000001F217
:0400F300000001F315
:0400F400000001F413
:0400F500000001F511
:0400F600000001F60F
:0400F700000001F70D
:0400F800000001F80B
:0400F900000001F909
:0400FA00000001FA07
:0400FB00000001FB05
:0400FC00000001FC03
:0400FD00000001FD01
:0400FE00000001FEFF
:0400FF00000001FFFD
:0401000000000200F9
:0401010000000201F7
:0401020000000202F5
:0401030000000203F3
:0401040000000204F1
:0401050000000205EF
:0401060000000206ED
:0401070000000207EB
:0401080000000208E9
:0401090000000209E7
:04010A000000020AE5
:04010B000000020BE3
:04010C000000020CE1
:04010D000000020DDF
:04010E000000020EDD
:04010F000000020FDB
:0401100000000210D9
:0401110000000211D7
:0401120000000212D5
:0401130000000213D3
:0401140000000214D1
:0401150000000215CF
:0401160000000216CD
:0401170000000217CB
:0401180000000218C9
:0401190000000219C7
:04011A000000021AC5
:04011B000000021BC3
:04011C000000021CC1
:04011D000000021DBF
:04011E000000021EBD
:04011F000000021FBB
:0401200000000220B9
:0401210000000221B7
:0401220000000222B5
:0401230000000223B3
:0401240000000224B1
:0401250000000225AF
:0401260000000226AD
:0401270000000227AB
:0401280000000228A9
:0401290000000229A7
:04012A000000022AA5
:04012B000000022BA3
:04012C000000022CA1
:04012D000000022D9F
:04012E000000022E9D
:04012F000000022F9B
:040130000000023099
:040131000000023197
:040132000000023295
:040133000000023393
:040134000000023491
:04013500000002358F
:04013600000002368D
:04013700000002378B
:040138000000023889
:040139000000023987
:04013A000000023A85
:04013B000000023B83
:04013C000000023C81
:04013D000000023D7F
:04013E000000023E7D
:04013F000000023F7B
:040140000000024079
:040141000000024177
:040142000000024275
:040143000000024373
:040144000000024471
:04014500000002456F
:04014600000002466D
:04014700000002476B
:040148000000024869
:040149000000024967
:04014A000000024A65
:04014B000000024B63
:04014C000000024C61
:04014D000000024D5F
:04014E000000024E5D
:04014F000000024F5B
:040150000000025059
:040151000000025157
:040152000000025255
:040153000000025353
:040154000000025451
:04015500000002554F
:04015600000002564D
:04015700000002574B
:040158000000025849
:040159000000025947
:04015A000000025A45
:04015B000000025B43
:04015C000000025C41
:04015D000000025D3F
:04015E000000025E3D
:04015F000000025F3B
:040160000000026039
:040161000000026137
:040162000000026235
:040163000000026333
:040164000000026431
:04016500000002652F
:04016600000002662D
:04016700000002672B
:040168000000026829
:040169000000026927
:04016A000000026A25
:04016B000000026B23
:04016C000000026C21
:04016D000000026D1F
:04016E000000026E1D
:04016F000000026F1B
:040170000000027019
:040171000000027117
:040172000000027215
:040173000000027313
:040174000000027411
:04017500000002750F
:04017600000002760D
:04017700000002770B
:040178000000027809
:040179000000027907
:04017A000000027A05
:04017B000000027B03
:04017C000000027C01
:04017D000000027DFF
:04017E000000027EFD
:04017F000000027FFB
:0401800000000280F9
:0401810000000281F7
:0401820000000282F5
:0401830000000283F3
:0401840000000284F1
:0401850000000285EF
:0401860000000286ED
:0401870000000287EB
:0401880000000288E9
:0401890000000289E7
:04018A000000028AE5
:04018B000000028BE3
:04018C000000028CE1
:04018D000000028DDF
:04018E000000028EDD
:04018F000000028FDB
:0401900000000290D9
:0401910000000291D7
:0401920000000292D5
:0401930000000293D3
:0401940000000294D1
:0401950000000295CF
:0401960000000296CD
:0401970000000297CB
:0401980000000298C9
:0401990000000299C7
:04019A000000029AC5
:04019B000000029BC3
:04019C000000029CC1
:04019D000000029DBF
:04019E000000029EBD
:04019F000000029FBB
:0401A000000002A0B9
:0401A100000002A1B7
:0401A200000002A2B5
:0401A300000002A3B3
:0401A400000002A4B1
:0401A500000002A5AF
:0401A600000002A6AD
:0401A700000002A7AB
:0401A800000002A8A9
:0401A900000002A9A7
:0401AA00000002AAA5
:0401AB00000002ABA3
:0401AC00000002ACA1
:0401AD00000002AD9F
:0401AE00000002AE9D
:0401AF00000002AF9B
:0401B000000002B099
:0401B100000002B197
:0401B200000002B295
:0401B300000002B393
:0401B400000002B491
:0401B500000002B58F
:0401B600000002B68D
:0401B700000002B78B
:0401B800000002B889
:0401B900000002B987
:0401BA00000002BA85
:0401BB00000002BB83
:0401BC00000002BC81
:0401BD00000002BD7F
:0401BE00000002BE7D
:0401BF00000002BF7B
:0401C000000002C079
:0401C100000002C177
:0401C200000002C275
:0401C300000002C373
:0401C400000002C471
:0401C500000002C56F
:0401C600000002C66D
:0401C700000002C76B
:0401C800000002C869
:0401C900000002C967
:0401CA00000002CA65
:0401CB00000002CB63
:0401CC00000002CC61
:0401CD00000002CD5F
:0401CE00000002CE5D
:0401CF00000002CF5B
:0401D000000002D059
:0401D100000002D157
:0401D200000002D255
:0401D300000002D353
:0401D400000002D451
:0401D500000002D54F
:0401D600000002D64D
:0401D700000002D74B
:0401D800000002D849
:0401D900000002D947
:0401DA00000002DA45
:0401DB00000002DB43
:0401DC00000002DC41
:0401DD00000002DD3F
:0401DE00000002DE3D
:0401DF00000002DF3B
:0401E000000002E039
:0401E100000002E137
:0401E200000002E235
:0401E300000002E333
:0401E400000002E431
:0401E500000002E52F
:0401E600000002E62D
:0401E700000002E72B
:0401E800000002E829
:0401E900000002E927
:0401EA00000002EA25
:0401EB00000002EB23
:0401EC00000002EC21
:0401ED00000002ED1F
:0401EE00000002EE1D
:0401EF00000002EF1B
:0401F000000002F019
:0401F100000002F117
:0401F200000002F215
:0401F300000002F313
:0401F400000002F411
:0401F500000002F50F
:0401F600000002F60D
:0401F700000002F70B
:0401F800000002F809
:0401F900000002F907
:0401FA00000002FA05
:0401FB00000002FB03
:0401FC00000002FC01
:0401FD00000002FDFF
:0401FE00000002FEFD
:0401FF00000002FFFB
:0402000000000300F7
:0402010000000301F5
:0402020000000302F3
:0402030000000303F1
:0402040000000304EF
:0402050000000305ED
:0402060000000306EB
:0402070000000307E9
:0402080000000308E7
:0402090000000309E5
:04020A000000030AE3
:04020B000000030BE1
:04020C000000030CDF
:04020D000000030DDD
:04020E000000030EDB
:04020F000000030FD9
:0402100000000310D7
:0402110000000311D5
:0402120000000312D3
:0402130000000313D1
:0402140000000314CF
:0402150000000315CD
:0402160000000316CB
:0402170000000317C9
:0402180000000318C7
:0402190000000319C5
:04021A000000031AC3
:04021B000000031BC1
:04021C000000031CBF
:04021D000000031DBD
:04021E000000031EBB
:04021F000000031FB9
:0402200000000320B7
:0402210000000321B5
:0402220000000322B3
:0402230000000323B1
:0402240000000324AF
:0402250000000325AD
:0402260000000326AB
:0402270000000327A9
:0402280000000328A7
:0402290000000329A5
:04022A000000032AA3
:04022B000000032BA1
:04022C000000032C9F
:04022D000000032D9D
:04022E000000032E9B
:04022F000000032F99
:040230000000033097
:040231000000033195
:040232000000033293
:040233000000033391
:04023400000003348F
:04023500000003358D
:04023600000003368B
:040237000000033789
:040238000000033887
:040239000000033985
:04023A000000033A83
:04023B000000033B81
:04023C000000033C7F
:04023D000000033D7D
:04023E000000033E7B
:04023F000000033F79
:040240000000034077
:040241000000034175
:040242000000034273
:040243000000034371
:04024400000003446F
:04024500000003456D
:04024600000003466B
:040247000000034769
:040248000000034867
:040249000000034965
:04024A000000034A63
:04024B000000034B61
:04024C000000034C5F
:04024D000000034D5D
:04024E000000034E5B
:04024F000000034F59
:040250000000035057
:040251000000035155
:040252000000035253
:040253000000035351
:04025400000003544F
:04025500000003554D
:04025600000003564B
:040257000000035749
:040258000000035847
:040259000000035945
:04025A000000035A43
:04025B000000035B41
:04025C000000035C3F
:04025D000000035D3D
:04025E000000035E3B
:04025F000000035F39
:040260000000036037
:040261000000036135
:040262000000036233
:040263000000036331
:04026400000003642F
:04026500000003652D
:04026600000003662B
:040267000000036729
:040268000000036827
:040269000000036925
:04026A000000036A23
:04026B000000036B21
:04026C000000036C1F
:04026D000000036D1D
:04026E000000036E1B
:04026F000000036F19
:040270000000037017
:040271000000037115
:040272000000037213
:040273000000037311
:04027400000003740F
:04027500000003750D
:04027600000003760B
:040277000000037709
:040278000000037807
:040279000000037905
:04027A000000037A03
:04027B000000037B01
:04027C000000037CFF
:04027D000000037DFD
:04027E000000037EFB
:04027F000000037FF9
:0402800000000380F7
:0402810000000381F5
:0402820000000382F3
:0402830000000383F1
:0402840000000384EF
:0402850000000385ED
:0402860000000386EB
:0402870000000387E9
:0402880000000388E7
:0402890000000389E5
:04028A000000038AE3
:04028B000000038BE1
:04028C000000038CDF
:04028D000000038DDD
:04028E000000038EDB
:04028F000000038FD9
:0402900000000390D7
:0402910000000391D5
:0402920000000392D3
:0402930000000393D1
:0402940000000394CF
:0402950000000395CD
:0402960000000396CB
:0402970000000397C9
:0402980000000398C7
:0402990000000399C5
:04029A000000039AC3
:04029B000000039BC1
:04029C000000039CBF
:04029D000000039DBD
:04029E000000039EBB
:04029F000000039FB9
:0402A000000003A0B7
:0402A100000003A1B5
:0402A200000003A2B3
:0402A300000003A3B1
:0402A400000003A4AF
:0402A500000003A5AD
:0402A600000003A6AB
:0402A700000003A7A9
:0402A800000003A8A7
:0402A900000003A9A5
:0402AA00000003AAA3
:0402AB00000003ABA1
:0402AC00000003AC9F
:0402AD00000003AD9D
:0402AE00000003AE9B
:0402AF00000003AF99
:0402B000000003B097
:0402B100000003B195
:0402B200000003B293
:0402B300000003B391
:0402B400000003B48F
:0402B500000003B58D
:0402B600000003B68B
:0402B700000003B789
:0402B800000003B887
:0402B900000003B985
:0402BA00000003BA83
:0402BB00000003BB81
:0402BC00000003BC7F
:0402BD00000003BD7D
:0402BE00000003BE7B
:0402BF00000003BF79
:0402C000000003C077
:0402C100000003C175
:0402C200000003C273
:0402C300000003C371
:0402C400000003C46F
:0402C500000003C56D
:0402C600000003C66B
:0402C700000003C769
:0402C800000003C867
:0402C900000003C965
:0402CA00000003CA63
:0402CB00000003CB61
:0402CC00000003CC5F
:0402CD00000003CD5D
:0402CE00000003CE5B
:0402CF00000003CF59
:0402D000000003D057
:0402D100000003D155
:0402D200000003D253
:0402D300000003D351
:0402D400000003D44F
:0402D500000003D54D
:0402D600000003D64B
:0402D700000003D749
:0402D800000003D847
:0402D900000003D945
:0402DA00000003DA43
:0402DB00000003DB41
:0402DC00000003DC3F
:0402DD00000003DD3D
:0402DE00000003DE3B
:0402DF00000003DF39
:0402E000000003E037
:0402E100000003E135
:0402E200000003E233
:0402E300000003E331
:0402E400000003E42F
:0402E500000003E52D
:0402E600000003E62B
:0402E700000003E729
:0402E800000003E827
:0402E900000003E925
:0402EA00000003EA23
:0402EB00000003EB21
:0402EC00000003EC1F
:0402ED00000003ED1D
:0402EE00000003EE1B
:0402EF00000003EF19
:0402F000000003F017
:0402F100000003F115
:0402F200000003F213
:0402F300000003F311
:0402F400000003F40F
:0402F500000003F50D
:0402F600000003F60B
:0402F700000003F709
:0402F800000003F807
:0402F900000003F905
:0402FA00000003FA03
:0402FB00000003FB01
:0402FC00000003FCFF
:0402FD00000003FDFD
:0402FE00000003FEFB
:0402FF00000003FFF9
:0403000000000400F5
:0403010000000401F3
:0403020000000402F1
:0403030000000403EF
:0403040000000404ED
:0403050000000405EB
:0403060000000406E9
:0403070000000407E7
:0403080000000408E5
:0403090000000409E3
:04030A000000040AE1
:04030B000000040BDF
:04030C000000040CDD
:04030D000000040DDB
:04030E000000040ED9
:04030F000000040FD7
:0403100000000410D5
:0403110000000411D3
:0403120000000412D1
:0403130000000413CF
:0403140000000414CD
:0403150000000415CB
:0403160000000416C9
:0403170000000417C7
:0403180000000418C5
:0403190000000419C3
:04031A000000041AC1
:04031B000000041BBF
:04031C000000041CBD
:04031D000000041DBB
:04031E000000041EB9
:04031F000000041FB7
:0403200000000420B5
:0403210000000421B3
:0403220000000422B1
:0403230000000423AF
:0403240000000424AD
:0403250000000425AB
:0403260000000426A9
:0403270000000427A7
:0403280000000428A5
:0403290000000429A3
:04032A000000042AA1
:04032B000000042B9F
:04032C000000042C9D
:04032D000000042D9B
:04032E000000042E99
:04032F000000042F97
:040330000000043095
:040331000000043193
:040332000000043291
:04033300000004338F
:04033400000004348D
:04033500000004358B
:040336000000043689
:040337000000043787
:040338000000043885
:040339000000043983
:04033A000000043A81
:04033B000000043B7F
:04033C000000043C7D
:04033D000000043D7B
:04033E000000043E79
:04033F000000043F77
:040340000000044075
:040341000000044173
:040342000000044271
:04034300000004436F
:04034400000004446D
:04034500000004456B
:040346000000044669
:040347000000044767
:040348000000044865
:040349000000044963
:04034A000000044A61
:04034B000000044B5F
:04034C000000044C5D
:04034D000000044D5B
:04034E000000044E59
:04034F000000044F57
:040350000000045055
:040351000000045153
:040352000000045251
:04035300000004534F
:04035400000004544D
:04035500000004554B
:040356000000045649
:040357000000045747
:040358000000045845
:040359000000045943
:04035A000000045A41
:04035B000000045B3F
:04035C000000045C3D
:04035D000000045D3B
:04035E000000045E39
:04035F000000045F37
:040360000000046035
:040361000000046133
:040362000000046231
:04036300000004632F
:04036400000004642D
:04036500000004652B
:040366000000046629
:040367000000046727
:040368000000046825
:040369000000046923
:04036A000000046A21
:04036B000000046B1F
:04036C000000046C1D
:04036D000000046D1B
:04036E000000046E19
:04036F000000046F17
:040370000000047015
:040371000000047113
:040372000000047211
:04037300000004730F
:04037400000004740D
:04037500000004750B
:040376000000047609
:040377000000047707
:040378000000047805
:040379000000047903
:04037A000000047A01
:04037B000000047BFF
:04037C000000047CFD
:04037D000000047DFB
:04037E000000047EF9
:04037F000000047FF7
:0403800000000480F5
:0403810000000481F3
:0403820000000482F1
:0403830000000483EF
:0403840000000484ED
:0403850000000485EB
:0403860000000486E9
:0403870000000487E7
:0403880000000488E5
:0403890000000489E3
:04038A000000048AE1
:04038B000000048BDF
:04038C000000048CDD
:04038D000000048DDB
:04038E000000048ED9
:04038F000000048FD7
:0403900000000490D5
:0403910000000491D3
:0403920000000492D1
:0403930000000493CF
:0403940000000494CD
:0403950000000495CB
:0403960000000496C9
:0403970000000497C7
:0403980000000498C5
:0403990000000499C3
:04039A000000049AC1
:04039B000000049BBF
:04039C000000049CBD
:04039D000000049DBB
:04039E000000049EB9
:04039F000000049FB7
:0403A000000004A0B5
:0403A100000004A1B3
:0403A200000004A2B1
:0403A300000004A3AF
:0403A400000004A4AD
:0403A500000004A5AB
:0403A600000004A6A9
:0403A700000004A7A7
:0403A800000004A8A5
:0403A900000004A9A3
:0403AA00000004AAA1
:0403AB00000004AB9F
:0403AC00000004AC9D
:0403AD00000004AD9B
:0403AE00000004AE99
:0403AF00000004AF97
:0403B000000004B095
:0403B100000004B193
:0403B200000004B291
:0403B300000004B38F
:0403B400000004B48D
:0403B500000004B58B
:0403B600000004B689
:0403B700000004B787
:0403B800000004B885
:0403B900000004B983
:0403BA00000004BA81
:0403BB00000004BB7F
:0403BC00000004BC7D
:0403BD00000004BD7B
:0403BE00000004BE79
:0403BF00000004BF77
:0403C000000004C075
:0403C100000004C173
:0403C200000004C271
:0403C300000004C36F
:0403C400000004C46D
:0403C500000004C56B
:0403C600000004C669
:0403C700000004C767
:0403C800000004C865
:0403C900000004C963
:0403CA00000004CA61
:0403CB00000004CB5F
:0403CC00000004CC5D
:0403CD00000004CD5B
:0403CE00000004CE59
:0403CF00000004CF57
:0403D000000004D055
:0403D100000004D153
:0403D200000004D251
:0403D300000004D34F
:0403D400000004D44D
:0403D500000004D54B
:0403D600000004D649
:0403D700000004D747
:0403D800000004D845
:0403D900000004D943
:0403DA00000004DA41
:0403DB00000004DB3F
:0403DC00000004DC3D
:0403DD00000004DD3B
:0403DE00000004DE39
:0403DF00000004DF37
:0403E000000004E035
:0403E100000004E133
:0403E200000004E231
:0403E300000004E32F
:0403E400000004E42D
:0403E500000004E52B
:0403E600000004E629
:0403E700000004E727
:0403E800000004E825
:0403E900000004E923
:0403EA00000004EA21
:0403EB00000004EB1F
:0403EC00000004EC1D
:0403ED00000004ED1B
:0403EE00000004EE19
:0403EF00000004EF17
:0403F000000004F015
:0403F100000004F113
:0403F200000004F211
:0403F300000004F30F
:0403F400000004F40D
:0403F500000004F50B
:0403F600000004F609
:0403F700000004F707
:0403F800000004F805
:0403F900000004F903
:0403FA00000004FA01
:0403FB00000004FBFF
:0403FC00000004FCFD
:0403FD00000004FDFB
:0403FE00000004FEF9
:0403FF00000004FFF7
:0404000000000500F3
:0404010000000501F1
:0404020000000502EF
:0404030000000503ED
:0404040000000504EB
:0404050000000505E9
:0404060000000506E7
:0404070000000507E5
:0404080000000508E3
:0404090000000509E1
:04040A000000050ADF
:04040B000000050BDD
:04040C000000050CDB
:04040D000000050DD9
:04040E000000050ED7
:04040F000000050FD5
:0404100000000510D3
:0404110000000511D1
:0404120000000512CF
:0404130000000513CD
:0404140000000514CB
:0404150000000515C9
:0404160000000516C7
:0404170000000517C5
:0404180000000518C3
:0404190000000519C1
:04041A000000051ABF
:04041B000000051BBD
:04041C000000051CBB
:04041D000000051DB9
:04041E000000051EB7
:04041F000000051FB5
:0404200000000520B3
:0404210000000521B1
:0404220000000522AF
:0404230000000523AD
:0404240000000524AB
:0404250000000525A9
:0404260000000526A7
:0404270000000527A5
:0404280000000528A3
:0404290000000529A1
:04042A000000052A9F
:04042B000000052B9D
:04042C000000052C9B
:04042D000000052D99
:04042E000000052E97
:04042F000000052F95
:040430000000053093
:040431000000053191
:04043200000005328F
:04043300000005338D
:04043400000005348B
:040435000000053589
:040436000000053687
:040437000000053785
:040438000000053883
:040439000000053981
:04043A000000053A7F
:04043B000000053B7D
:04043C000000053C7B
:04043D000000053D79
:04043E000000053E77
:04043F000000053F75
:040440000000054073
:040441000000054171
:04044200000005426F
:04044300000005436D
:04044400000005446B
:040445000000054569
:040446000000054667
:040447000000054765
:040448000000054863
:040449000000054961
:04044A000000054A5F
:04044B000000054B5D
:04044C000000054C5B
:04044D000000054D59
:04044E000000054E57
:04044F000000054F55
:040450000000055053
:040451000000055151
:04045200000005524F
:04045300000005534D
:04045400000005544B
:040455000000055549
:040456000000055647
:040457000000055745
:040458000000055843
:040459000000055941
:04045A000000055A3F
:04045B000000055B3D
:04045C000000055C3B
:04045D000000055D39
:04045E000000055E37
:04045F000000055F35
:040460000000056033
:040461000000056131
:04046200000005622F
:04046300000005632D
:04046400000005642B
:040465000000056529
:040466000000056627
:040467000000056725
:040468000000056823
:040469000000056921
:04046A000000056A1F
:04046B000000056B1D
:04046C000000056C1B
:04046D000000056D19
:04046E000000056E17
:04046F000000056F15
:040470000000057013
:040471000000057111
:04047200000005720F
:04047300000005730D
:04047400000005740B
:040475000000057509
:040476000000057607
:040477000000057705
:040478000000057803
:040479000000057901
:04047A000000057AFF
:04047B000000057BFD
:04047C000000057CFB
:04047D000000057DF9
:04047E000000057EF7
:04047F000000057FF5
:0404800000000580F3
:0404810000000581F1
:0404820000000582EF
:0404830000000583ED
:0404840000000584EB
:0404850000000585E9
:0404860000000586E7
:0404870000000587E5
:0404880000000588E3
:0404890000000589E1
:04048A000000058ADF
:04048B000000058BDD
:04048C000000058CDB
:04048D000000058DD9
:04048E000000058ED7
:04048F000000058FD5
:0404900000000590D3
:0404910000000591D1
:0404920000000592CF
:0404930000000593CD
:0404940000000594CB
:0404950000000595C9
:0404960000000596C7
:0404970000000597C5
:0404980000000598C3
:0404990000000599C1
:04049A000000059ABF
:04049B000000059BBD
:04049C000000059CBB
:04049D000000059DB9
:04049E000000059EB7
:04049F000000059FB5
:0404A000000005A0B3
:0404A100000005A1B1
:0404A200000005A2AF
:0404A300000005A3AD
:0404A400000005A4AB
:0404A500000005A5A9
:0404A600000005A6A7
:0404A700000005A7A5
:0404A800000005A8A3
:0404A900000005A9A1
:0404AA00000005AA9F
:0404AB00000005AB9D
:0404AC00000005AC9B
:0404AD00000005AD99
:0404AE00000005AE97
:0404AF00000005AF95
:0404B000000005B093
:0404B100000005B191
:0404B200000005B28F
:0404B300000005B38D
:0404B400000005B48B
:0404B500000005B589
:0404B600000005B687
:0404B700000005B785
:0404B800000005B883
:0404B900000005B981
:0404BA00000005BA7F
:0404BB00000005BB7D
:0404BC00000005BC7B
:0404BD00000005BD79
:0404BE00000005BE77
:0404BF00000005BF75
:0404C000000005C073
:0404C100000005C171
:0404C200000005C26F
:0404C300000005C36D
:0404C400000005C46B
:0404C500000005C569
:0404C600000005C667
:0404C700000005C765
:0404C800000005C863
:0404C900000005C961
:0404CA00000005CA5F
:0404CB00000005CB5D
:0404CC00000005CC5B
:0404CD00000005CD59
:0404CE00000005CE57
:0404CF00000005CF55
:0404D000000005D053
:0404D100000005D151
:0404D200000005D24F
:0404D300000005D34D
:0404D400000005D44B
:0404D500000005D549
:0404D600000005D647
:0404D700000005D745
:0404D800000005D843
:0404D900000005D941
:0404DA00000005DA3F
:0404DB00000005DB3D
:0404DC00000005DC3B
:0404DD00000005DD39
:0404DE00000005DE37
:0404DF00000005DF35
:0404E000000005E033
:0404E100000005E131
:0404E200000005E22F
:0404E300000005E32D
:0404E400000005E42B
:0404E500000005E529
:0404E600000005E627
:0404E700000005E725
:0404E800000005E823
:0404E900000005E921
:0404EA00000005EA1F
:0404EB00000005EB1D
:0404EC00000005EC1B
:0404ED00000005ED19
:0404EE00000005EE17
:0404EF00000005EF15
:0404F000000005F013
:0404F100000005F111
:0404F200000005F20F
:0404F300000005F30D
:0404F400000005F40B
:0404F500000005F509
:0404F600000005F607
:0404F700000005F705
:0404F800000005F803
:0404F900000005F901
:0404FA00000005FAFF
:0404FB00000005FBFD
:0404FC00000005FCFB
:0404FD00000005FDF9
:0404FE00000005FEF7
:0404FF00000005FFF5
:0405000000000600F1
:0405010000000601EF
:0405020000000602ED
:0405030000000603EB
:0405040000000604E9
:0405050000000605E7
:0405060000000606E5
:0405070000000607E3
:0405080000000608E1
:0405090000000609DF
:04050A000000060ADD
:04050B000000060BDB
:04050C000000060CD9
:04050D000000060DD7
:04050E000000060ED5
:04050F000000060FD3
:0405100000000610D1
:0405110000000611CF
:0405120000000612CD
:0405130000000613CB
:0405140000000614C9
:0405150000000615C7
:0405160000000616C5
:0405170000000617C3
:0405180000000618C1
:0405190000000619BF
:04051A000000061ABD
:04051B000000061BBB
:04051C000000061CB9
:04051D000000061DB7
:04051E000000061EB5
:04051F000000061FB3
:0405200000000620B1
:0405210000000621AF
:0405220000000622AD
:0405230000000623AB
:0405240000000624A9
:0405250000000625A7
:0405260000000626A5
:0405270000000627A3
:0405280000000628A1
:04052900000006299F
:04052A000000062A9D
:04052B000000062B9B
:04052C000000062C99
:04052D000000062D97
:04052E000000062E95
:04052F000000062F93
:040530000000063091
:04053100000006318F
:04053200000006328D
:04053300000006338B
:040534000000063489
:040535000000063587
:040536000000063685
:040537000000063783
:040538000000063881
:04053900000006397F
:04053A000000063A7D
:04053B000000063B7B
:04053C000000063C79
:04053D000000063D77
:04053E000000063E75
:04053F000000063F73
:040540000000064071
:04054100000006416F
:04054200000006426D
:04054300000006436B
:040544000000064469
:040545000000064567
:040546000000064665
:040547000000064763
:040548000000064861
:04054900000006495F
:04054A000000064A5D
:04054B000000064B5B
:04054C000000064C59
:04054D000000064D57
:04054E000000064E55
:04054F000000064F53
:040550000000065051
:04055100000006514F
:04055200000006524D
:04055300000006534B
:040554000000065449
:040555000000065547
:040556000000065645
:040557000000065743
:040558000000065841
:04055900000006593F
:04055A000000065A3D
:04055B000000065B3B
:04055C000000065C39
:04055D000000065D37
:04055E000000065E35
:04055F000000065F33
:040560000000066031
:04056100000006612F
:04056200000006622D
:04056300000006632B
:040564000000066429
:040565000000066527
:040566000000066625
:040567000000066723
:040568000000066821
:04056900000006691F
:04056A000000066A1D
:04056B000000066B1B
:04056C000000066C19
:04056D000000066D17
:04056E000000066E15
:04056F000000066F13
:040570000000067011
:04057100000006710F
:04057200000006720D
:04057300000006730B
:040574000000067409
:040575000000067507
:040576000000067605
:040577000000067703
:040578000000067801
:0405790000000679FF
:04057A000000067AFD
:04057B000000067BFB
:04057C000000067CF9
:04057D000000067DF7
:04057E000000067EF5
:04057F000000067FF3
:0405800000000680F1
:0405810000000681EF
:0405820000000682ED
:0405830000000683EB
:0405840000000684E9
:0405850000000685E7
:0405860000000686E5
:0405870000000687E3
:0405880000000688E1
:0405890000000689DF
:04058A000000068ADD
:04058B000000068BDB
:04058C000000068CD9
:04058D000000068DD7
:04058E000000068ED5
:04058F000000068FD3
:0405900000000690D1
:0405910000000691CF
:0405920000000692CD
:0405930000000693CB
:0405940000000694C9
:0405950000000695C7
:0405960000000696C5
:0405970000000697C3
:0405980000000698C1
:0405990000000699BF
:04059A000000069ABD
:04059B000000069BBB
:04059C000000069CB9
:04059D000000069DB7
:04059E000000069EB5
:04059F000000069FB3
:0405A000000006A0B1
:0405A100000006A1AF
:0405A200000006A2AD
:0405A300000006A3AB
:0405A400000006A4A9
:0405A500000006A5A7
:0405A600000006A6A5
:0405A700000006A7A3
:0405A800000006A8A1
:0405A900000006A99F
:0405AA00000006AA9D
:0405AB00000006AB9B
:0405AC00000006AC99
:0405AD00000006AD97
:0405AE00000006AE95
:0405AF00000006AF93
:0405B000000006B091
:0405B100000006B18F
:0405B200000006B28D
:0405B300000006B38B
:0405B400000006B489
:0405B500000006B587
:0405B600000006B685
:0405B700000006B783
:0405B800000006B881
:0405B900000006B97F
:0405BA00000006BA7D
:0405BB00000006BB7B
:0405BC00000006BC79
:0405BD00000006BD77
:0405BE00000006BE75
:0405BF00000006BF73
:0405C000000006C071
:0405C100000006C16F
:0405C200000006C26D
:0405C300000006C36B
:0405C400000006C469
:0405C500000006C567
:0405C600000006C665
:0405C700000006C763
:0405C800000006C861
:0405C900000006C95F
:0405CA00000006CA5D
:0405CB00000006CB5B
:0405CC00000006CC59
:0405CD00000006CD57
:0405CE00000006CE55
:0405CF00000006CF53
:0405D000000006D051
:0405D100000006D14F
:0405D200000006D24D
:0405D300000006D34B
:0405D400000006D449
:0405D500000006D547
:0405D600000006D645
:0405D700000006D743
:0405D800000006D841
:0405D900000006D93F
:0405DA00000006DA3D
:0405DB00000006DB3B
:0405DC00000006DC39
:0405DD00000006DD37
:0405DE00000006DE35
:0405DF00000006DF33
:0405E000000006E031
:0405E100000006E12F
:0405E200000006E22D
:0405E300000006E32B
:0405E400000006E429
:0405E500000006E527
:0405E600000006E625
:0405E700000006E723
:0405E800000006E821
:0405E900000006E91F
:0405EA00000006EA1D
:0405EB00000006EB1B
:0405EC00000006EC19
:0405ED00000006ED17
:0405EE00000006EE15
:0405EF00000006EF13
:0405F000000006F011
:0405F100000006F10F
:0405F200000006F20D
:0405F300000006F30B
:0405F400000006F409
:0405F500000006F507
:0405F600000006F605
:0405F700000006F703
:0405F800000006F801
:0405F900000006F9FF
:0405FA00000006FAFD
:0405FB00000006FBFB
:0405FC00000006FCF9
:0405FD00000006FDF7
:0405FE00000006FEF5
:0405FF00000006FFF3
:0406000000000700EF
:0406010000000701ED
:0406020000000702EB
:0406030000000703E9
:0406040000000704E7
:0406050000000705E5
:0406060000000706E3
:0406070000000707E1
:0406080000000708DF
:0406090000000709DD
:04060A000000070ADB
:04060B000000070BD9
:04060C000000070CD7
:04060D000000070DD5
:04060E000000070ED3
:04060F000000070FD1
:0406100000000710CF
:0406110000000711CD
:0406120000000712CB
:0406130000000713C9
:0406140000000714C7
:0406150000000715C5
:0406160000000716C3
:0406170000000717C1
:0406180000000718BF
:0406190000000719BD
:04061A000000071ABB
:04061B000000071BB9
:04061C000000071CB7
:04061D000000071DB5
:04061E000000071EB3
:04061F000000071FB1
:0406200000000720AF
:0406210000000721AD
:0406220000000722AB
:0406230000000723A9
:0406240000000724A7
:0406250000000725A5
:0406260000000726A3
:0406270000000727A1
:04062800000007289F
:04062900000007299D
:04062A000000072A9B
:04062B000000072B99
:04062C000000072C97
:04062D000000072D95
:04062E000000072E93
:04062F000000072F91
:04063000000007308F
:04063100000007318D
:04063200000007328B
:040633000000073389
:040634000000073487
:040635000000073585
:040636000000073683
:040637000000073781
:04063800000007387F
:04063900000007397D
:04063A000000073A7B
:04063B000000073B79
:04063C000000073C77
:04063D000000073D75
:04063E000000073E73
:04063F000000073F71
:04064000000007406F
:04064100000007416D
:04064200000007426B
:040643000000074369
:040644000000074467
:040645000000074565
:040646000000074663
:040647000000074761
:04064800000007485F
:04064900000007495D
:04064A000000074A5B
:04064B000000074B59
:04064C000000074C57
:04064D000000074D55
:04064E000000074E53
:04064F000000074F51
:04065000000007504F
:04065100000007514D
:04065200000007524B
:040653000000075349
:040654000000075447
:040655000000075545
:040656000000075643
:040657000000075741
:04065800000007583F
:04065900000007593D
:04065A000000075A3B
:04065B000000075B39
:04065C000000075C37
:04065D000000075D35
:04065E000000075E33
:04065F000000075F31
:04066000000007602F
:04066100000007612D
:04066200000007622B
:040663000000076329
:040664000000076427
:040665000000076525
:040666000000076623
:040667000000076721
:04066800000007681F
:04066900000007691D
:04066A000000076A1B
:04066B000000076B19
:04066C000000076C17
:04066D000000076D15
:04066E000000076E13
:04066F000000076F11
:04067000000007700F
:04067100000007710D
:04067200000007720B
:040673000000077309
:040674000000077407
:040675000000077505
:040676000000077603
:040677000000077701
:0406780000000778FF
:0406790000000779FD
:04067A000000077AFB
:04067B000000077BF9
:04067C000000077CF7
:04067D000000077DF5
:04067E000000077EF3
:04067F000000077FF1
:0406800000000780EF
:0406810000000781ED
:0406820000000782EB
:0406830000000783E9
:0406840000000784E7
:0406850000000785E5
:0406860000000786E3
:0406870000000787E1
:0406880000000788DF
:0406890000000789DD
:04068A000000078ADB
:04068B000000078BD9
:04068C000000078CD7
:04068D000000078DD5
:04068E000000078ED3
:04068F000000078FD1
:0406900000000790CF
:0406910000000791CD
:0406920000000792CB
:0406930000000793C9
:0406940000000794C7
:0406950000000795C5
:0406960000000796C3
:0406970000000797C1
:0406980000000798BF
:0406990000000799BD
:04069A000000079ABB
:04069B000000079BB9
:04069C000000079CB7
:04069D000000079DB5
:04069E000000079EB3
:04069F000000079FB1
:0406A000000007A0AF
:0406A100000007A1AD
:0406A200000007A2AB
:0406A300000007A3A9
:0406A400000007A4A7
:0406A500000007A5A5
:0406A600000007A6A3
:0406A700000007A7A1
:0406A800000007A89F
:0406A900000007A99D
:0406AA00000007AA9B
:0406AB00000007AB99
:0406AC00000007AC97
:0406AD00000007AD95
:0406AE00000007AE93
:0406AF00000007AF91
:0406B000000007B08F
:0406B100000007B18D
:0406B200000007B28B
:0406B300000007B389
:0406B400000007B487
:0406B500000007B585
:0406B600000007B683
:0406B700000007B781
:0406B800000007B87F
:0406B900000007B97D
:0406BA00000007BA7B
:0406BB00000007BB79
:0406BC00000007BC77
:0406BD00000007BD75
:0406BE00000007BE73
:0406BF00000007BF71
:0406C000000007C06F
:0406C100000007C16D
:0406C200000007C26B
:0406C300000007C369
:0406C400000007C467
:0406C500000007C565
:0406C600000007C663
:0406C700000007C761
:0406C800000007C85F
:0406C900000007C95D
:0406CA00000007CA5B
:0406CB00000007CB59
:0406CC00000007CC57
:0406CD00000007CD55
:0406CE00000007CE53
:0406CF00000007CF51
:0406D000000007D04F
:0406D100000007D14D
:0406D200000007D24B
:0406D300000007D349
:0406D400000007D447
:0406D500000007D545
:0406D600000007D643
:0406D700000007D741
:0406D800000007D83F
:0406D900000007D93D
:0406DA00000007DA3B
:0406DB00000007DB39
:0406DC00000007DC37
:0406DD00000007DD35
:0406DE00000007DE33
:0406DF00000007DF31
:0406E000000007E02F
:0406E100000007E12D
:0406E200000007E22B
:0406E300000007E329
:0406E400000007E427
:0406E500000007E525
:0406E600000007E623
:0406E700000007E721
:0406E800000007E81F
:0406E900000007E91D
:0406EA00000007EA1B
:0406EB00000007EB19
:0406EC00000007EC17
:0406ED00000007ED15
:0406EE00000007EE13
:0406EF00000007EF11
:0406F000000007F00F
:0406F100000007F10D
:0406F200000007F20B
:0406F300000007F309
:0406F400000007F407
:0406F500000007F505
:0406F600000007F603
:0406F700000007F701
:0406F800000007F8FF
:0406F900000007F9FD
:0406FA00000007FAFB
:0406FB00000007FBF9
:0406FC00000007FCF7
:0406FD00000007FDF5
:0406FE00000007FEF3
:0406FF00000007FFF1
:0407000000000800ED
:0407010000000801EB
:0407020000000802E9
:0407030000000803E7
:0407040000000804E5
:0407050000000805E3
:0407060000000806E1
:0407070000000807DF
:0407080000000808DD
:0407090000000809DB
:04070A000000080AD9
:04070B000000080BD7
:04070C000000080CD5
:04070D000000080DD3
:04070E000000080ED1
:04070F000000080FCF
:0407100000000810CD
:0407110000000811CB
:0407120000000812C9
:0407130000000813C7
:0407140000000814C5
:0407150000000815C3
:0407160000000816C1
:0407170000000817BF
:0407180000000818BD
:0407190000000819BB
:04071A000000081AB9
:04071B000000081BB7
:04071C000000081CB5
:04071D000000081DB3
:04071E000000081EB1
:04071F000000081FAF
:0407200000000820AD
:0407210000000821AB
:0407220000000822A9
:0407230000000823A7
:0407240000000824A5
:0407250000000825A3
:0407260000000826A1
:04072700000008279F
:04072800000008289D
:04072900000008299B
:04072A000000082A99
:04072B000000082B97
:04072C000000082C95
:04072D000000082D93
:04072E000000082E91
:04072F000000082F8F
:04073000000008308D
:04073100000008318B
:040732000000083289
:040733000000083387
:040734000000083485
:040735000000083583
:040736000000083681
:04073700000008377F
:04073800000008387D
:04073900000008397B
:04073A000000083A79
:04073B000000083B77
:04073C000000083C75
:04073D000000083D73
:04073E000000083E71
:04073F000000083F6F
:04074000000008406D
:04074100000008416B
:040742000000084269
:040743000000084367
:040744000000084465
:040745000000084563
:040746000000084661
:04074700000008475F
:04074800000008485D
:04074900000008495B
:04074A000000084A59
:04074B000000084B57
:04074C000000084C55
:04074D000000084D53
:04074E000000084E51
:04074F000000084F4F
:04075000000008504D
:04075100000008514B
:040752000000085249
:040753000000085347
:040754000000085445
:040755000000085543
:040756000000085641
:04075700000008573F
:04075800000008583D
:04075900000008593B
:04075A000000085A39
:04075B000000085B37
:04075C000000085C35
:04075D000000085D33
:04075E000000085E31
:04075F000000085F2F
:04076000000008602D
:04076100000008612B
:040762000000086229
:040763000000086327
:040764000000086425
:040765000000086523
:040766000000086621
:04076700000008671F
:04076800000008681D
:04076900000008691B
:04076A000000086A19
:04076B000000086B17
:04076C000000086C15
:04076D000000086D13
:04076E000000086E11
:04076F000000086F0F
:04077000000008700D
:04077100000008710B
:040772000000087209
:040773000000087307
:040774000000087405
:040775000000087503
:040776000000087601
:0407770000000877FF
:0407780000000878FD
:0407790000000879FB
:04077A000000087AF9
:04077B000000087BF7
:04077C000000087CF5
:04077D000000087DF3
:04077E000000087EF1
:04077F000000087FEF
:0407800000000880ED
:0407810000000881EB
:0407820000000882E9
:0407830000000883E7
:0407840000000884E5
:0407850000000885E3
:0407860000000886E1
:0407870000000887DF
:0407880000000888DD
:0407890000000889DB
:04078A000000088AD9
:04078B000000088BD7
:04078C000000088CD5
:04078D000000088DD3
:04078E000000088ED1
:04078F000000088FCF
:0407900000000890CD
:0407910000000891CB
:0407920000000892C9
:0407930000000893C7
:0407940000000894C5
:0407950000000895C3
:0407960000000896C1
:0407970000000897BF
:0407980000000898BD
:0407990000000899BB
:04079A000000089AB9
:04079B000000089BB7
:04079C000000089CB5
:04079D000000089DB3
:04079E000000089EB1
:04079F000000089FAF
:0407A000000008A0AD
:0407A100000008A1AB
:0407A200000008A2A9
:0407A300000008A3A7
:0407A400000008A4A5
:0407A500000008A5A3
:0407A600000008A6A1
:0407A700000008A79F
:0407A800000008A89D
:0407A900000008A99B
:0407AA00000008AA99
:0407AB00000008AB97
:0407AC00000008AC95
:0407AD00000008AD93
:0407AE00000008AE91
:0407AF00000008AF8F
:0407B000000008B08D
:0407B100000008B18B
:0407B200000008B289
:0407B300000008B387
:0407B400000008B485
:0407B500000008B583
:0407B600000008B681
:0407B700000008B77F
:0407B800000008B87D
:0407B900000008B97B
:0407BA00000008BA79
:0407BB00000008BB77
:0407BC00000008BC75
:0407BD00000008BD73
:0407BE00000008BE71
:0407BF00000008BF6F
:0407C000000008C06D
:0407C100000008C16B
:0407C200000008C269
:0407C300000008C367
:0407C400000008C465
:0407C500000008C563
:0407C600000008C661
:0407C700000008C75F
:0407C800000008C85D
:0407C900000008C95B
:0407CA00000008CA59
:0407CB00000008CB57
:0407CC00000008CC55
:0407CD00000008CD53
:0407CE00000008CE51
:0407CF00000008CF4F
:0407D000000008D04D
:0407D100000008D14B
:0407D200000008D249
:0407D300000008D347
:0407D400000008D445
:0407D500000008D543
:0407D600000008D641
:0407D700000008D73F
:0407D800000008D83D
:0407D900000008D93B
:0407DA00000008DA39
:0407DB00000008DB37
:0407DC00000008DC35
:0407DD00000008DD33
:0407DE00000008DE31
:0407DF00000008DF2F
:0407E000000008E02D
:0407E100000008E12B
:0407E200000008E229
:0407E300000008E327
:0407E400000008E425
:0407E500000008E523
:0407E600000008E621
:0407E700000008E71F
:0407E800000008E81D
:0407E900000008E91B
:0407EA00000008EA19
:0407EB00000008EB17
:0407EC00000008EC15
:0407ED00000008ED13
:0407EE00000008EE11
:0407EF00000008EF0F
:0407F000000008F00D
:0407F100000008F10B
:0407F200000008F209
:0407F300000008F307
:0407F400000008F405
:0407F500000008F503
:0407F600000008F601
:0407F700000008F7FF
:0407F800000008F8FD
:0407F900000008F9FB
:0407FA00000008FAF9
:0407FB00000008FBF7
:0407FC00000008FCF5
:0407FD00000008FDF3
:0407FE00000008FEF1
:0407FF00000008FFEF
:0408000000000900EB
:0408010000000901E9
:0408020000000902E7
:0408030000000903E5
:0408040000000904E3
:0408050000000905E1
:0408060000000906DF
:0408070000000907DD
:0408080000000908DB
:0408090000000909D9
:04080A000000090AD7
:04080B000000090BD5
:04080C000000090CD3
:04080D000000090DD1
:04080E000000090ECF
:04080F000000090FCD
:0408100000000910CB
:0408110000000911C9
:0408120000000912C7
:0408130000000913C5
:0408140000000914C3
:0408150000000915C1
:0408160000000916BF
:0408170000000917BD
:0408180000000918BB
:0408190000000919B9
:04081A000000091AB7
:04081B000000091BB5
:04081C000000091CB3
:04081D000000091DB1
:04081E000000091EAF
:04081F000000091FAD
:0408200000000920AB
:0408210000000921A9
:0408220000000922A7
:0408230000000923A5
:0408240000000924A3
:0408250000000925A1
:04082600000009269F
:04082700000009279D
:04082800000009289B
:040829000000092999
:04082A000000092A97
:04082B000000092B95
:04082C000000092C93
:04082D000000092D91
:04082E000000092E8F
:04082F000000092F8D
:04083000000009308B
:040831000000093189
:040832000000093287
:040833000000093385
:040834000000093483
:040835000000093581
:04083600000009367F
:04083700000009377D
:04083800000009387B
:040839000000093979
:04083A000000093A77
:04083B000000093B75
:04083C000000093C73
:04083D000000093D71
:04083E000000093E6F
:04083F000000093F6D
:04084000000009406B
:040841000000094169
:040842000000094267
:040843000000094365
:040844000000094463
:040845000000094561
:04084600000009465F
:04084700000009475D
:04084800000009485B
:040849000000094959
:04084A000000094A57
:04084B000000094B55
:04084C000000094C53
:04084D000000094D51
:04084E000000094E4F
:04084F000000094F4D
:04085000000009504B
:040851000000095149
:040852000000095247
:040853000000095345
:040854000000095443
:040855000000095541
:04085600000009563F
:04085700000009573D
:04085800000009583B
:040859000000095939
:04085A000000095A37
:04085B000000095B35
:04085C000000095C33
:04085D000000095D31
:04085E000000095E2F
:04085F000000095F2D
:04086000000009602B
:040861000000096129
:040862000000096227
:040863000000096325
:040864000000096423
:040865000000096521
:04086600000009661F
:04086700000009671D
:04086800000009681B
:040869000000096919
:04086A000000096A17
:04086B000000096B15
:04086C000000096C13
:04086D000000096D11
:04086E000000096E0F
:04086F000000096F0D
:04087000000009700B
:040871000000097109
:040872000000097207
:040873000000097305
:040874000000097403
:040875000000097501
:0408760000000976FF
:0408770000000977FD
:0408780000000978FB
:0408790000000979F9
:04087A000000097AF7
:04087B000000097BF5
:04087C000000097CF3
:04087D000000097DF1
:04087E000000097EEF
:04087F000000097FED
:0408800000000980EB
:0408810000000981E9
:0408820000000982E7
:0408830000000983E5
:0408840000000984E3
:0408850000000985E1
:0408860000000986DF
:0408870000000987DD
:0408880000000988DB
:0408890000000989D9
:04088A000000098AD7
:04088B000000098BD5
:04088C000000098CD3
:04088D000000098DD1
:04088E000000098ECF
:04088F000000098FCD
:0408900000000990CB
:0408910000000991C9
:0408920000000992C7
:0408930000000993C5
:0408940000000994C3
:0408950000000995C1
:0408960000000996BF
:0408970000000997BD
:0408980000000998BB
:0408990000000999B9
:04089A000000099AB7
:04089B000000099BB5
:04089C000000099CB3
:04089D000000099DB1
:04089E000000099EAF
:04089F000000099FAD
:0408A000000009A0AB
:0408A100000009A1A9
:0408A200000009A2A7
:0408A300000009A3A5
:0408A400000009A4A3
:0408A500000009A5A1
:0408A600000009A69F
:0408A700000009A79D
:0408A800000009A89B
:0408A900000009A999
:0408AA00000009AA97
:0408AB00000009AB95
:0408AC00000009AC93
:0408AD00000009AD91
:0408AE00000009AE8F
:0408AF00000009AF8D
:0408B000000009B08B
:0408B100000009B189
:0408B200000009B287
:0408B300000009B385
:0408B400000009B483
:0408B500000009B581
:0408B600000009B67F
:0408B700000009B77D
:0408B800000009B87B
:0408B900000009B979
:0408BA00000009BA77
:0408BB00000009BB75
:0408BC00000009BC73
:0408BD00000009BD71
:0408BE00000009BE6F
:0408BF00000009BF6D
:0408C000000009C06B
:0408C100000009C169
:0408C200000009C267
:0408C300000009C365
:0408C400000009C463
:0408C500000009C561
:0408C600000009C65F
:0408C700000009C75D
:0408C800000009C85B
:0408C900000009C959
:0408CA00000009CA57
:0408CB00000009CB55
:0408CC00000009CC53
:0408CD00000009CD51
:0408CE00000009CE4F
:0408CF00000009CF4D
:0408D000000009D04B
:0408D100000009D149
:0408D200000009D247
:0408D300000009D345
:0408D400000009D443
:0408D500000009D541
:0408D600000009D63F
:0408D700000009D73D
:0408D800000009D83B
:0408D900000009D939
:0408DA00000009DA37
:0408DB00000009DB35
:0408DC00000009DC33
:0408DD00000009DD31
:0408DE00000009DE2F
:0408DF00000009DF2D
:0408E000000009E02B
:0408E100000009E129
:0408E200000009E227
:0408E300000009E325
:0408E400000009E423
:0408E500000009E521
:0408E600000009E61F
:0408E700000009E71D
:0408E800000009E81B
:0408E900000009E919
:0408EA00000009EA17
:0408EB00000009EB15
:0408EC00000009EC13
:0408ED00000009ED11
:0408EE00000009EE0F
:0408EF00000009EF0D
:0408F000000009F00B
:0408F100000009F109
:0408F200000009F207
:0408F300000009F305
:0408F400000009F403
:0408F500000009F501
:0408F600000009F6FF
:0408F700000009F7FD
:0408F800000009F8FB
:0408F900000009F9F9
:0408FA00000009FAF7
:0408FB00000009FBF5
:0408FC00000009FCF3
:0408FD00000009FDF1
:0408FE00000009FEEF
:0408FF00000009FFED
:0409000000000A00E9
:0409010000000A01E7
:0409020000000A02E5
:0409030000000A03E3
:0409040000000A04E1
:0409050000000A05DF
:0409060000000A06DD
:0409070000000A07DB
:0409080000000A08D9
:0409090000000A09D7
:04090A0000000A0AD5
:04090B0000000A0BD3
:04090C0000000A0CD1
:04090D0000000A0DCF
:04090E0000000A0ECD
:04090F0000000A0FCB
:0409100000000A10C9
:0409110000000A11C7
:0409120000000A12C5
:0409130000000A13C3
:0409140000000A14C1
:0409150000000A15BF
:0409160000000A16BD
:0409170000000A17BB
:0409180000000A18B9
:0409190000000A19B7
:04091A0000000A1AB5
:04091B0000000A1BB3
:04091C0000000A1CB1
:04091D0000000A1DAF
:04091E0000000A1EAD
:04091F0000000A1FAB
:0409200000000A20A9
:0409210000000A21A7
:0409220000000A22A5
:0409230000000A23A3
:0409240000000A24A1
:0409250000000A259F
:0409260000000A269D
:0409270000000A279B
:0409280000000A2899
:0409290000000A2997
:04092A0000000A2A95
:04092B0000000A2B93
:04092C0000000A2C91
:04092D0000000A2D8F
:04092E0000000A2E8D
:04092F0000000A2F8B
:0409300000000A3089
:0409310000000A3187
:0409320000000A3285
:0409330000000A3383
:0409340000000A3481
:0409350000000A357F
:0409360000000A367D
:0409370000000A377B
:0409380000000A3879
:0409390000000A3977
:04093A0000000A3A75
:04093B0000000A3B73
:04093C0000000A3C71
:04093D0000000A3D6F
:04093E0000000A3E6D
:04093F0000000A3F6B
:0409400000000A4069
:0409410000000A4167
:0409420000000A4265
:0409430000000A4363
:0409440000000A4461
:0409450000000A455F
:0409460000000A465D
:0409470000000A475B
:0409480000000A4859
:0409490000000A4957
:04094A0000000A4A55
:04094B0000000A4B53
:04094C0000000A4C51
:04094D0000000A4D4F
:04094E0000000A4E4D
:04094F0000000A4F4B
:0409500000000A5049
:0409510000000A5147
:0409520000000A5245
:0409530000000A5343
:0409540000000A5441
:0409550000000A553F
:0409560000000A563D
:0409570000000A573B
:0409580000000A5839
:0409590000000A5937
:04095A0000000A5A35
:04095B0000000A5B33
:04095C0000000A5C31
:04095D0000000A5D2F
:04095E0000000A5E2D
:04095F0000000A5F2B
:0409600000000A6029
:0409610000000A6127
:0409620000000A6225
:0409630000000A6323
:0409640000000A6421
:0409650000000A651F
:0409660000000A661D
:0409670000000A671B
:0409680000000A6819
:0409690000000A6917
:04096A0000000A6A15
:04096B0000000A6B13
:04096C0000000A6C11
:04096D0000000A6D0F
:04096E0000000A6E0D
:04096F0000000A6F0B
:0409700000000A7009
:0409710000000A7107
:0409720000000A7205
:0409730000000A7303
:0409740000000A7401
:0409750000000A75FF
:0409760000000A76FD
:0409770000000A77FB
:0409780000000A78F9
:0409790000000A79F7
:04097A0000000A7AF5
:04097B0000000A7BF3
:04097C0000000A7CF1
:04097D0000000A7DEF
:04097E0000000A7EED
:04097F0000000A7FEB
:0409800000000A80E9
:0409810000000A81E7
:0409820000000A82E5
:0409830000000A83E3
:0409840000000A84E1
:0409850000000A85DF
:0409860000000A86DD
:0409870000000A87DB
:0409880000000A88D9
:0409890000000A89D7
:04098A0000000A8AD5
:04098B0000000A8BD3
:04098C0000000A8CD1
:04098D0000000A8DCF
:04098E0000000A8ECD
:04098F0000000A8FCB
:0409900000000A90C9
:0409910000000A91C7
:0409920000000A92C5
:0409930000000A93C3
:0409940000000A94C1
:0409950000000A95BF
:0409960000000A96BD
:0409970000000A97BB
:0409980000000A98B9
:0409990000000A99B7
:04099A0000000A9AB5
:04099B0000000A9BB3
:04099C0000000A9CB1
:04099D0000000A9DAF
:04099E0000000A9EAD
:04099F0000000A9FAB
:0409A00000000AA0A9
:0409A10000000AA1A7
:0409A20000000AA2A5
:0409A30000000AA3A3
:0409A40000000AA4A1
:0409A50000000AA59F
:0409A60000000AA69D
:0409A70000000AA79B
:0409A80000000AA899
:0409A90000000AA997
:0409AA0000000AAA95
:0409AB0000000AAB93
:0409AC0000000AAC91
:0409AD0000000AAD8F
:0409AE0000000AAE8D
:0409AF0000000AAF8B
:0409B00000000AB089
:0409B10000000AB187
:0409B20000000AB285
:0409B30000000AB383
:0409B40000000AB481
:0409B50000000AB57F
:0409B60000000AB67D
:0409B70000000AB77B
:0409B80000000AB879
:0409B90000000AB977
:0409BA0000000ABA75
:0409BB0000000ABB73
:0409BC0000000ABC71
:0409BD0000000ABD6F
:0409BE0000000ABE6D
:0409BF0000000ABF6B
:0409C00000000AC069
:0409C10000000AC167
:0409C20000000AC265
:0409C30000000AC363
:0409C40000000AC461
:0409C50000000AC55F
:0409C60000000AC65D
:0409C70000000AC75B
:0409C80000000AC859
:0409C90000000AC957
:0409CA0000000ACA55
:0409CB0000000ACB53
:0409CC0000000ACC51
:0409CD0000000ACD4F
:0409CE0000000ACE4D
:0409CF0000000ACF4B
:0409D00000000AD049
:0409D10000000AD147
:0409D20000000AD245
:0409D30000000AD343
:0409D40000000AD441
:0409D50000000AD53F
:0409D60000000AD63D
:0409D70000000AD73B
:0409D80000000AD839
:0409D90000000AD937
:0409DA0000000ADA35
:0409DB0000000ADB33
:0409DC0000000ADC31
:0409DD0000000ADD2F
:0409DE0000000ADE2D
:0409DF0000000ADF2B
:0409E00000000AE029
:0409E10000000AE127
:0409E20000000AE225
:0409E30000000AE323
:0409E40000000AE421
:0409E50000000AE51F
:0409E60000000AE61D
:0409E70000000AE71B
:0409E80000000AE819
:0409E90000000AE917
:0409EA0000000AEA15
:0409EB0000000AEB13
:0409EC0000000AEC11
:0409ED0000000AED0F
:0409EE0000000AEE0D
:0409EF0000000AEF0B
:0409F00000000AF009
:0409F10000000AF107
:0409F20000000AF205
:0409F30000000AF303
:0409F40000000AF401
:0409F50000000AF5FF
:0409F60000000AF6FD
:0409F70000000AF7FB
:0409F80000000AF8F9
:0409F90000000AF9F7
:0409FA0000000AFAF5
:0409FB0000000AFBF3
:0409FC0000000AFCF1
:0409FD0000000AFDEF
:0409FE0000000AFEED
:0409FF0000000AFFEB
:040A000000000B00E7
:040A010000000B01E5
:040A020000000B02E3
:040A030000000B03E1
:040A040000000B04DF
:040A050000000B05DD
:040A060000000B06DB
:040A070000000B07D9
:040A080000000B08D7
:040A090000000B09D5
:040A0A0000000B0AD3
:040A0B0000000B0BD1
:040A0C0000000B0CCF
:040A0D0000000B0DCD
:040A0E0000000B0ECB
:040A0F0000000B0FC9
:040A100000000B10C7
:040A110000000B11C5
:040A120000000B12C3
:040A130000000B13C1
:040A140000000B14BF
:040A150000000B15BD
:040A160000000B16BB
:040A170000000B17B9
:040A180000000B18B7
:040A190000000B19B5
:040A1A0000000B1AB3
:040A1B0000000B1BB1
:040A1C0000000B1CAF
:040A1D0000000B1DAD
:040A1E0000000B1EAB
:040A1F0000000B1FA9
:040A200000000B20A7
:040A210000000B21A5
:040A220000000B22A3
:040A230000000B23A1
:040A240000000B249F
:040A250000000B259D
:040A260000000B269B
:040A270000000B2799
:040A280000000B2897
:040A290000000B2995
:040A2A0000000B2A93
:040A2B0000000B2B91
:040A2C0000000B2C8F
:040A2D0000000B2D8D
:040A2E0000000B2E8B
:040A2F0000000B2F89
:040A300000000B3087
:040A310000000B3185
:040A320000000B3283
:040A330000000B3381
:040A340000000B347F
:040A350000000B357D
:040A360000000B367B
:040A370000000B3779
:040A380000000B3877
:040A390000000B3975
:040A3A0000000B3A73
:040A3B0000000B3B71
:040A3C0000000B3C6F
:040A3D0000000B3D6D
:040A3E0000000B3E6B
:040A3F0000000B3F69
:040A400000000B4067
:040A410000000B4165
:040A420000000B4263
:040A430000000B4361
:040A440000000B445F
:040A450000000B455D
:040A460000000B465B
:040A470000000B4759
:040A480000000B4857
:040A490000000B4955
:040A4A0000000B4A53
:040A4B0000000B4B51
:040A4C0000000B4C4F
:040A4D0000000B4D4D
:040A4E0000000B4E4B
:040A4F0000000B4F49
:040A500000000B5047
:040A510000000B5145
:040A520000000B5243
:040A530000000B5341
:040A540000000B543F
:040A550000000B553D
:040A560000000B563B
:040A570000000B5739
:040A580000000B5837
:040A590000000B5935
:040A5A0000000B5A33
:040A5B0000000B5B31
:040A5C0000000B5C2F
:040A5D0000000B5D2D
:040A5E0000000B5E2B
:040A5F0000000B5F29
:040A600000000B6027
:040A610000000B6125
:040A620000000B6223
:040A630000000B6321
:040A640000000B641F
:040A650000000B651D
:040A660000000B661B
:040A670000000B6719
:040A680000000B6817
:040A690000000B6915
:040A6A0000000B6A13
:040A6B0000000B6B11
:040A6C0000000B6C0F
:040A6D0000000B6D0D
:040A6E0000000B6E0B
:040A6F0000000B6F09
:040A700000000B7007
:040A710000000B7105
:040A720000000B7203
:040A730000000B7301
:040A740000000B74FF
:040A750000000B75FD
:040A760000000B76FB
:040A770000000B77F9
:040A780000000B78F7
:040A790000000B79F5
:040A7A0000000B7AF3
:040A7B0000000B7BF1
:040A7C0000000B7CEF
:040A7D0000000B7DED
:040A7E0000000B7EEB
:040A7F0000000B7FE9
:040A800000000B80E7
:040A810000000B81E5
:040A820000000B82E3
:040A830000000B83E1
:040A840000000B84DF
:040A850000000B85DD
:040A860000000B86DB
:040A870000000B87D9
:040A880000000B88D7
:040A890000000B89D5
:040A8A0000000B8AD3
:040A8B0000000B8BD1
:040A8C0000000B8CCF
:040A8D0000000B8DCD
:040A8E0000000B8ECB
:040A8F0000000B8FC9
:040A900000000B90C7
:040A910000000B91C5
:040A920000000B92C3
:040A930000000B93C1
:040A940000000B94BF
:040A950000000B95BD
:040A960000000B96BB
:040A970000000B97B9
:040A980000000B98B7
:040A990000000B99B5
:040A9A0000000B9AB3
:040A9B0000000B9BB1
:040A9C0000000B9CAF
:040A9D0000000B9DAD
:040A9E0000000B9EAB
:040A9F0000000B9FA9
:040AA00000000BA0A7
:040AA10000000BA1A5
:040AA20000000BA2A3
:040AA30000000BA3A1
:040AA40000000BA49F
:040AA50000000BA59D
:040AA60000000BA69B
:040AA70000000BA799
:040AA80000000BA897
:040AA90000000BA995
:040AAA0000000BAA93
:040AAB0000000BAB91
:040AAC0000000BAC8F
:040AAD0000000BAD8D
:040AAE0000000BAE8B
:040AAF0000000BAF89
:040AB00000000BB087
:040AB10000000BB185
:040AB20000000BB283
:040AB30000000BB381
:040AB40000000BB47F
:040AB50000000BB57D
:040AB60000000BB67B
:040AB70000000BB779
:040AB80000000BB877
:040AB90000000BB975
:040ABA0000000BBA73
:040ABB0000000BBB71
:040ABC0000000BBC6F
:040ABD0000000BBD6D
:040ABE0000000BBE6B
:040ABF0000000BBF69
:040AC00000000BC067
:040AC10000000BC165
:040AC20000000BC263
:040AC30000000BC361
:040AC40000000BC45F
:040AC50000000BC55D
:040AC60000000BC65B
:040AC70000000BC759
:040AC80000000BC857
:040AC90000000BC955
:040ACA0000000BCA53
:040ACB0000000BCB51
:040ACC0000000BCC4F
:040ACD0000000BCD4D
:040ACE0000000BCE4B
:040ACF0000000BCF49
:040AD00000000BD047
:040AD10000000BD145
:040AD20000000BD243
:040AD30000000BD341
:040AD40000000BD43F
:040AD50000000BD53D
:040AD60000000BD63B
:040AD70000000BD739
:040AD80000000BD837
:040AD90000000BD935
:040ADA0000000BDA33
:040ADB0000000BDB31
:040ADC0000000BDC2F
:040ADD0000000BDD2D
:040ADE0000000BDE2B
:040ADF0000000BDF29
:040AE00000000BE027
:040AE10000000BE125
:040AE20000000BE223
:040AE30000000BE321
:040AE40000000BE41F
:040AE50000000BE51D
:040AE60000000BE61B
:040AE70000000BE719
:040AE80000000BE817
:040AE90000000BE915
:040AEA0000000BEA13
:040AEB0000000BEB11
:040AEC0000000BEC0F
:040AED0000000BED0D
:040AEE0000000BEE0B
:040AEF0000000BEF09
:040AF00000000BF007
:040AF10000000BF105
:040AF20000000BF203
:040AF30000000BF301
:040AF40000000BF4FF
:040AF50000000BF5FD
:040AF60000000BF6FB
:040AF70000000BF7F9
:040AF80000000BF8F7
:040AF90000000BF9F5
:040AFA0000000BFAF3
:040AFB0000000BFBF1
:040AFC0000000BFCEF
:040AFD0000000BFDED
:040AFE0000000BFEEB
:040AFF0000000BFFE9
:040B000000000C00E5
:040B010000000C01E3
:040B020000000C02E1
:040B030000000C03DF
:040B040000000C04DD
:040B050000000C05DB
:040B060000000C06D9
:040B070000000C07D7
:040B080000000C08D5
:040B090000000C09D3
:040B0A0000000C0AD1
:040B0B0000000C0BCF
:040B0C0000000C0CCD
:040B0D0000000C0DCB
:040B0E0000000C0EC9
:040B0F0000000C0FC7
:040B100000000C10C5
:040B110000000C11C3
:040B120000000C12C1
:040B130000000C13BF
:040B140000000C14BD
:040B150000000C15BB
:040B160000000C16B9
:040B170000000C17B7
:040B180000000C18B5
:040B190000000C19B3
:040B1A0000000C1AB1
:040B1B0000000C1BAF
:040B1C0000000C1CAD
:040B1D0000000C1DAB
:040B1E0000000C1EA9
:040B1F0000000C1FA7
:040B200000000C20A5
:040B210000000C21A3
:040B220000000C22A1
:040B230000000C239F
:040B240000000C249D
:040B250000000C259B
:040B260000000C2699
:040B270000000C2797
:040B280000000C2895
:040B290000000C2993
:040B2A0000000C2A91
:040B2B0000000C2B8F
:040B2C0000000C2C8D
:040B2D0000000C2D8B
:040B2E0000000C2E89
:040B2F0000000C2F87
:040B300000000C3085
:040B310000000C3183
:040B320000000C3281
:040B330000000C337F
:040B340000000C347D
:040B350000000C357B
:040B360000000C3679
:040B370000000C3777
:040B380000000C3875
:040B390000000C3973
:040B3A0000000C3A71
:040B3B0000000C3B6F
:040B3C0000000C3C6D
:040B3D0000000C3D6B
:040B3E0000000C3E69
:040B3F0000000C3F67
:040B400000000C4065
:040B410000000C4163
:040B420000000C4261
:040B430000000C435F
:040B440000000C445D
:040B450000000C455B
:040B460000000C4659
:040B470000000C4757
:040B480000000C4855
:040B490000000C4953
:040B4A0000000C4A51
:040B4B0000000C4B4F
:040B4C0000000C4C4D
:040B4D0000000C4D4B
:040B4E0000000C4E49
:040B4F0000000C4F47
:040B500000000C5045
:040B510000000C5143
:040B520000000C5241
:040B530000000C533F
:040B540000000C543D
:040B550000000C553B
:040B560000000C5639
:040B570000000C5737
:040B580000000C5835
:040B590000000C5933
:040B5A0000000C5A31
:040B5B0000000C5B2F
:040B5C0000000C5C2D
:040B5D0000000C5D2B
:040B5E0000000C5E29
:040B5F0000000C5F27
:040B600000000C6025
:040B610000000C6123
:040B620000000C6221
:040B630000000C631F
:040B640000000C641D
:040B650000000C651B
:040B660000000C6619
:040B670000000C6717
:040B680000000C6815
:040B690000000C6913
:040B6A0000000C6A11
:040B6B0000000C6B0F
:040B6C0000000C6C0D
:040B6D0000000C6D0B
:040B6E0000000C6E09
:040B6F0000000C6F07
:040B700000000C7005
:040B710000000C7103
:040B720000000C7201
:040B730000000C73FF
:040B740000000C74FD
:040B750000000C75FB
:040B760000000C76F9
:040B770000000C77F7
:040B780000000C78F5
:040B790000000C79F3
:040B7A0000000C7AF1
:040B7B0000000C7BEF
:040B7C0000000C7CED
:040B7D0000000C7DEB
:040B7E0000000C7EE9
:040B7F0000000C7FE7
:040B800000000C80E5
:040B810000000C81E3
:040B820000000C82E1
:040B830000000C83DF
:040B840000000C84DD
:040B850000000C85DB
:040B860000000C86D9
:040B870000000C87D7
:040B880000000C88D5
:040B890000000C89D3
:040B8A0000000C8AD1
:040B8B0000000C8BCF
:040B8C0000000C8CCD
:040B8D0000000C8DCB
:040B8E0000000C8EC9
:040B8F0000000C8FC7
:040B900000000C90C5
:040B910000000C91C3
:040B920000000C92C1
:040B930000000C93BF
:040B940000000C94BD
:040B950000000C95BB
:040B960000000C96B9
:040B970000000C97B7
:040B980000000C98B5
:040B990000000C99B3
:040B9A0000000C9AB1
:040B9B0000000C9BAF
:040B9C0000000C9CAD
:040B9D0000000C9DAB
:040B9E0000000C9EA9
:040B9F0000000C9FA7
:040BA00000000CA0A5
:040BA10000000CA1A3
:040BA20000000CA2A1
:040BA30000000CA39F
:040BA40000000CA49D
:040BA50000000CA59B
:040BA60000000CA699
:040BA70000000CA797
:040BA80000000CA895
:040BA90000000CA993
:040BAA0000000CAA91
:040BAB0000000CAB8F
:040BAC0000000CAC8D
:040BAD0000000CAD8B
:040BAE0000000CAE89
:040BAF0000000CAF87
:040BB00000000CB085
:040BB10000000CB183
:040BB20000000CB281
:040BB30000000CB37F
:040BB40000000CB47D
:040BB50000000CB57B
:040BB60000000CB679
:040BB70000000CB777
:040BB80000000CB875
:040BB90000000CB973
:040BBA0000000CBA71
:040BBB0000000CBB6F
:040BBC0000000CBC6D
:040BBD0000000CBD6B
:040BBE0000000CBE69
:040BBF0000000CBF67
:040BC00000000CC065
:040BC10000000CC163
:040BC20000000CC261
:040BC30000000CC35F
:040BC40000000CC45D
:040BC50000000CC55B
:040BC60000000CC659
:040BC70000000CC757
:040BC80000000CC855
:040BC90000000CC953
:040BCA0000000CCA51
:040BCB0000000CCB4F
:040BCC0000000CCC4D
:040BCD0000000CCD4B
:040BCE0000000CCE49
:040BCF0000000CCF47
:040BD00000000CD045
:040BD10000000CD143
:040BD20000000CD241
:040BD30000000CD33F
:040BD40000000CD43D
:040BD50000000CD53B
:040BD60000000CD639
:040BD70000000CD737
:040BD80000000CD835
:040BD90000000CD933
:040BDA0000000CDA31
:040BDB0000000CDB2F
:040BDC0000000CDC2D
:040BDD0000000CDD2B
:040BDE0000000CDE29
:040BDF0000000CDF27
:040BE00000000CE025
:040BE10000000CE123
:040BE20000000CE221
:040BE30000000CE31F
:040BE40000000CE41D
:040BE50000000CE51B
:040BE60000000CE619
:040BE70000000CE717
:040BE80000000CE815
:040BE90000000CE913
:040BEA0000000CEA11
:040BEB0000000CEB0F
:040BEC0000000CEC0D
:040BED0000000CED0B
:040BEE0000000CEE09
:040BEF0000000CEF07
:040BF00000000CF005
:040BF10000000CF103
:040BF20000000CF201
:040BF30000000CF3FF
:040BF40000000CF4FD
:040BF50000000CF5FB
:040BF60000000CF6F9
:040BF70000000CF7F7
:040BF80000000CF8F5
:040BF90000000CF9F3
:040BFA0000000CFAF1
:040BFB0000000CFBEF
:040BFC0000000CFCED
:040BFD0000000CFDEB
:040BFE0000000CFEE9
:040BFF0000000CFFE7
:040C000000000D00E3
:040C010000000D01E1
:040C020000000D02DF
:040C030000000D03DD
:040C040000000D04DB
:040C050000000D05D9
:040C060000000D06D7
:040C070000000D07D5
:040C080000000D08D3
:040C090000000D09D1
:040C0A0000000D0ACF
:040C0B0000000D0BCD
:040C0C0000000D0CCB
:040C0D0000000D0DC9
:040C0E0000000D0EC7
:040C0F0000000D0FC5
:040C100000000D10C3
:040C110000000D11C1
:040C120000000D12BF
:040C130000000D13BD
:040C140000000D14BB
:040C150000000D15B9
:040C160000000D16B7
:040C170000000D17B5
:040C180000000D18B3
:040C190000000D19B1
:040C1A0000000D1AAF
:040C1B0000000D1BAD
:040C1C0000000D1CAB
:040C1D0000000D1DA9
:040C1E0000000D1EA7
:040C1F0000000D1FA5
:040C200000000D20A3
:040C210000000D21A1
:040C220000000D229F
:040C230000000D239D
:040C240000000D249B
:040C250000000D2599
:040C260000000D2697
:040C270000000D2795
:040C280000000D2893
:040C290000000D2991
:040C2A0000000D2A8F
:040C2B0000000D2B8D
:040C2C0000000D2C8B
:040C2D0000000D2D89
:040C2E0000000D2E87
:040C2F0000000D2F85
:040C300000000D3083
:040C310000000D3181
:040C320000000D327F
:040C330000000D337D
:040C340000000D347B
:040C350000000D3579
:040C360000000D3677
:040C370000000D3775
:040C380000000D3873
:040C390000000D3971
:040C3A0000000D3A6F
:040C3B0000000D3B6D
:040C3C0000000D3C6B
:040C3D0000000D3D69
:040C3E0000000D3E67
:040C3F0000000D3F65
:040C400000000D4063
:040C410000000D4161
:040C420000000D425F
:040C430000000D435D
:040C440000000D445B
:040C450000000D4559
:040C460000000D4657
:040C470000000D4755
:040C480000000D4853
:040C490000000D4951
:040C4A0000000D4A4F
:040C4B0000000D4B4D
:040C4C0000000D4C4B
:040C4D0000000D4D49
:040C4E0000000D4E47
:040C4F0000000D4F45
:040C500000000D5043
:040C510000000D5141
:040C520000000D523F
:040C530000000D533D
:040C540000000D543B
:040C550000000D5539
:040C560000000D5637
:040C570000000D5735
:040C580000000D5833
:040C590000000D5931
:040C5A0000000D5A2F
:040C5B0000000D5B2D
:040C5C0000000D5C2B
:040C5D0000000D5D29
:040C5E0000000D5E27
:040C5F0000000D5F25
:040C600000000D6023
:040C610000000D6121
:040C620000000D621F
:040C630000000D631D
:040C640000000D641B
:040C650000000D6519
:040C660000000D6617
:040C670000000D6715
:040C680000000D6813
:040C690000000D6911
:040C6A0000000D6A0F
:040C6B0000000D6B0D
:040C6C0000000D6C0B
:040C6D0000000D6D09
:040C6E0000000D6E07
:040C6F0000000D6F05
:040C700000000D7003
:040C710000000D7101
:040C720000000D72FF
:040C730000000D73FD
:040C740000000D74FB
:040C750000000D75F9
:040C760000000D76F7
:040C770000000D77F5
:040C780000000D78F3
:040C790000000D79F1
:040C7A0000000D7AEF
:040C7B0000000D7BED
:040C7C0000000D7CEB
:040C7D0000000D7DE9
:040C7E0000000D7EE7
:040C7F0000000D7FE5
